:020000040800F2
:10180000A0410020451900084D190008A155000805
:10181000511900085319000855190008000000006C
:101820000000000000000000000000005719000840
:1018300059190008000000005B1900085D19000834
:101840005F1900085F1900085F1900081966000891
:10185000693A00085F1900085F1900085F1900085D
:101860005F1900085F1900085F1900085F19000878
:101870005F1900085F1900085F1900085F19000868
:101880005F1900085F1900085F1900085F19000858
:101890005F1900085F1900085F1900085D3800082B
:1018A0005F1900085D8900085F1900085F190008CA
:1018B0007D890008D18900085F1900085F190008B8
:1018C0005F1900085F1900085F1900085F19000818
:1018D0005F190008A58D0008E18D00081D8E000825
:1018E0005F1900085F1900085F1900085F190008F8
:1018F0005F1900085F1900085F1900085F190008E8
:101900005F1900085F1900085F1900085F190008D7
:101910005F1900085F1900085F1900085F190008C7
:101920005F1900085F1900085F1900085F190008B7
:10193000DFF80CD001F04EF900480047B90101086A
:10194000A04100200648804706480047FEE7FEE722
:10195000FEE7FEE7FEE7FEE7FEE7FEE7FEE7FEE75F
:10196000FD880008311900082DE9F05F05460020C8
:1019700092469B4688460646814640241BE0284600
:1019800041464746224600F099FE53465A46C01A41
:10199000914110D311461846224600F047F82D1AFF
:1019A00067EB01084F4622460120002100F03EF877
:1019B00017EB00094E41201EA4F10104DFDC48466C
:1019C00031462A464346BDE8F09F2DE9F041002408
:1019D000061B254671F1000605DA01240027D0EB2D
:1019E000070067EB0101161E73F1000605DA0027F8
:1019F000D2EB0702012567EB0303FFF7B5FF86462D
:101A00000E4617469C46AC4204D00025D0EB050E8E
:101A100065EB010624B10020D2EB000760EB030C5C
:101A2000704631463A466346BDE8F081202A04DB21
:101A3000203A00FA02F1002070479140C2F12003E1
:101A400020FA03F319439040704740EA01039B07D3
:101A500003D009E008C9121F08C0042AFAD203E023
:101A600011F8013B00F8013B521EF9D27047D2B287
:101A700001E000F8012B491EFBD270470022F6E777
:101A800010B513460A4604461946FFF7F0FF2046F4
:101A900010BD421E12F8013F002BFBD111F8013B93
:101AA00002F8013B002BF9D1704730B505462A46B4
:101AB0000B4612F8010B13F8014B08B1A042F8D005
:101AC0001CB1002802D06D1CF1E7284630BD10B5CE
:101AD000044604E00B7800F8013B03B1491C521E98
:101AE000F8D2204610BDCAB2401E10F8011F8A422B
:101AF00002D00029F9D100207047421C10F8011BC8
:101B00000029FBD1801A704710B5002200E0521C5A
:101B1000835C8C5CA34201D1002BF8D1D8B2E1B236
:101B2000401A10BD30B504460020034600E05B1C9F
:101B3000934203D2E05CCD5C401BF8D030BD03463D
:101B400011F8012B00F8012B002AF9D11846704733
:101B50000FB400B58DB010A909900B9000914FF013
:101B6000FF300A9000200C90054806900548079029
:101B70006A4609A80F9900F0D3FD0DB05DF814FB7B
:101B80003D2700085B2700082DE9FF4F1C4681B068
:101B90000021D4E9016791464FF0FF358A46884617
:101BA000A1696D1C02988847216A834688470028EE
:101BB000F6D1BBF1FF3F0CD026F4C066002F1ADD32
:101BC000700615D5BBF12B0F0AD0BBF12D0F0FD12D
:101BD00004E04FF0FF3005B0BDE8F08F46F48066BA
:101BE000A1696D1C029888477F1E8346002F02DD85
:101BF000BBF1300F03D0B9F1000F2AD025E0A16965
:101C00006D1C46F400767F1E029888478346002F9D
:101C100005DDBBF1780F06D0BBF1580F03D0B9F149
:101C2000000F10D011E0B9F1000F02D0B9F1100F80
:101C30000BD1A1696D1C26F400767F1E029888479F
:101C40008346102000E0082081464FEAE9700090AA
:101C500017E00A20F8E74346AAFB092803FB09809E
:101C6000DDF800C07F1E0AFB0C0112EB0B0A41EBF2
:101C7000EB78A16946F4007605F1010502988847E2
:101C80008346002F06DD4946584600F034FD5FEAE2
:101C9000000BE0D5E16902988847B00502D46FF0E7
:101CA000010098E7F00718D1700610D5700551466D
:101CB00005D50023D1EB030163EB080200E04246A7
:101CC0002068031D23600068C0E9001205E0206859
:101CD000011D21600068C0E900A828467BE72DE9C6
:101CE000FF5F1D464FF0FF3BD5E9014691465F4639
:101CF0004FF00008A9697F1C01988847296A82462D
:101D000088470028F6D1BAF1FF3F0CD024F4C06414
:101D1000002E19DD600614D5BAF12B0F09D0BAF1E7
:101D20002D0F0ED103E0584604B0BDE8F09F44F4F7
:101D30008064A9697F1C01988847761E8246002E20
:101D400002DDBAF1300F03D0B9F1000F26D032E036
:101D5000A969761E44F400747F1C01988847824666
:101D6000002E05DDBAF1780F06D0BAF1580F03D076
:101D7000B9F1000F10D01EE0B9F1000F02D0B9F197
:101D8000100F18D1A969761E24F400747F1C0198E5
:101D900088478246102002E0082000E00A208146A1
:101DA00009E008FB0908A969761E44F400747F1C49
:101DB000019888478246002E05DD4946504600F0CE
:101DC0009AFC0028EDDAE96901988847A00502D459
:101DD0006FF00100A8E7E00725D1600613D5600584
:101DE00002D5C8F1000000E0404629680A1D2A60BB
:101DF0000968220501D5087015E0220701D5088081
:101E000011E008600FE02868011D296000682105C5
:101E100002D580F8008006E0210702D5A0F80080F6
:101E200001E0C0F8008038467EE700002DE9FF4F52
:101E3000087883B09946FF2805D0491C2D2804D086
:101E40000024002008E000200BE00124F9E700EB6B
:101E5000800003EB4000491C0B78FF2BF7D104B145
:101E6000404200230293147819461D462D2C01D0C0
:101E70002B2C04D1521C2D2C13D000240294AA46E2
:101E80001478FF2C0FD00A25A3FB057801FB0581F0
:101E90004FF0000C03FB0C11521CE3194AEB01013B
:101EA000EEE70124EAE7814453EA010002D019F584
:101EB000C87F06DA03980021C0E9001107B0BDE829
:101EC000F08F0025AE4E2F46DFF8B882184600F09E
:101ED00045FECDE90001B9F1000002DAC9F10004C4
:101EE00000E004460023A74A1AEB030B42EB045A16
:101EF00012E0E00707D02A4633463846414600F054
:101F000052FA074688462A4633461046194600F0DC
:101F10004AFA05460E466410002CEAD1DDE90001BC
:101F2000B9F1000F5A46534606DA00F0AEFA3A46C7
:101F3000434600F0AAFA05E000F035FA3A46434677
:101F400000F031FA029A0AB181F00041039AC2E925
:101F50000001B3E72DE9FF4F1F468DB0D7E90146D9
:101F60004FF0FF382E2045464FF000090B90B9691D
:101F70006D1C0E988847396A824688470028F6D13A
:101F8000BAF1FF3F0AD024F4D064002E11DDBAF17B
:101F90002B0F08D0BAF12D0F0BD102E0404611B043
:101FA0008DE744F48064B9696D1C0E9888478246B9
:101FB000761E6946600501D52D2000E02B208DF8A6
:101FC000000001F1010B0DF1200809E0B9696D1C59
:101FD0000E98884782460F9844F40074761E056078
:101FE000002E02DDBAF1300FF0D00B998A453ED1B8
:101FF00044F0800406E00F99681CA9F1010944F43B
:1020000000740860B9696D1C761E0E988847824678
:102010003028F0D02BE00B998A4505D1200603D457
:1020200044F08004761E18E0504608F0F7FA08B332
:102030000DF11301761E44F400748B4508D2AAF109
:1020400030000BF8010B200607D5A9F1010003E0D1
:10205000200602D409F101008146A00502D50F999E
:10206000681C0860B9696D1C0E9888478246002E6E
:10207000D1DC53E0002E51DDBAF1650F02D0BAF188
:10208000450F4BD1A00549D5B9696D1C24F44074A6
:10209000761E0E9888478246002E0CDD2B2804D031
:1020A000BAF12D0F07D144F48074B9696D1C0E98F4
:1020B00088478246761EE00501D52D2100E02B21C0
:1020C00008F8011BCDF82C8021E00DF12901761EC6
:1020D00044F4007488450CD2AAF1300010F0FF00DF
:1020E00088F8000002D10B99884509D908F1010848
:1020F00006E0E00501D5244801E042F20F70814678
:10210000B9696D1C0E98884782460F980560002EAD
:1021100004DD504608F082FA0028D6D1F9690E98FD
:102120008847FF208BF8000088F800000020069008
:1021300007904B466A4608A906A8FFF777FEA00558
:1021400002D46FF001002AE714F0240F0AD0E00750
:1021500014D1DDE906123868031D3B600068C0E950
:1021600000120BE0DDE9060100F062FA0146E0072B
:1021700004D13868021D3A600068016028460EE705
:10218000000014400000F03FF1D8FFFF2DE9F047B8
:1021900091460F4680460446002614F8015B2DB197
:1021A00000F09CFA0068405DC007F6D12B2D02D0EC
:1021B0002D2D18D0641E4A463946204600F0DEFA1E
:1021C00027B13968A14201D1C7F8008071054FF0ED
:1021D00002040BD54042002803DD08F071F80460CA
:1021E000A007BDE8F08746F48066E4E70028F8DA47
:1021F00008F066F804606FF00040F2E770B506463C
:1022000008F05EF8046805460A2200213046FFF710
:10221000BDFF2C6070BDF0B480EA0102D40F420013
:10222000B2EB410F02D20246084611464A0042D0A4
:10223000C30DDDB2C1F3C752AD1A202D35DAC1F39B
:10224000160141F4000204B15242C5F1200602FA1F
:1022500006F12A411044B3EBD05F23D0C4B1012D65
:10226000A0EBC35009DCF0BC4FF0004202EAC352BD
:10227000DBB200F5000000F028BB400000F18070E8
:1022800000EBC350A0F1807040EAD170490009E032
:10229000490841EAC071A0EBC35000F500004008B6
:1022A00000EBC350F0BC00F007BB6142012202EB1F
:1022B0004101001BF6E7F0BC704781F00041AAE73E
:1022C00080F00040A7E780EA010210B502F0004369
:1022D000400022D04A001FD0010E01EB1261C0F372
:1022E0005600C2F3560240F4000042F40002A0FB84
:1022F000022000047F39140400D0401C50EA124030
:1023000001D44000491EC2B20C0604EBD010401CA0
:102310004008802A02D003E0002010BD20F0010018
:10232000002900DA0020184310BD30B480EA010211
:1023300002F0004530F0004221F0004013D090B18F
:10234000C30DD40DC2F31601C0F31600E41A41F414
:10235000000140F400027D34914201D3641C00E08E
:102360004900002C02DA30BC002070474FF4000016
:102370000023914201D3891A034340084FEA4101E7
:10238000F7D151B1914202D14FF0004105E002D2A4
:102390004FF0010101E06FF0010103EBC45028444C
:1023A00030BC00F089BA2DE9FE4F81EA030404F045
:1023B000004421F0004100944FF0000B23F0004353
:1023C00050EA01045ED052EA03045BD0C3F30A541E
:1023D000C1F30A552C44A4F2F3340194A0FB025437
:1023E000C1F3130141F48011C3F3130343F48013C9
:1023F00001FB024400FB034E840A970A44EA81541D
:1024000047EA8357A4FB076802958D0A05FB0785F9
:102410004FEA932C04FB0C542705029D4FEA065803
:1024200047EA1637B5EB08056EEB070C870E920EE0
:1024300047EA811742EA8312A7FB0201B6EB0B01C0
:1024400064EB00042B0D43EA0C335E1844EB1C5084
:10245000DA465146E7FB0201C5F313044FEA0B339A
:1024600043EA14534FEA0432019C43EA0603A4F101
:102470000C040294009CCDE900B400F063FA03B0B0
:10248000BDE8F08F00200146F9E72DE9F04D81EA23
:10249000030404F0004B21F0004514464FF0000AFD
:1024A00023F0004150EA050220D054EA01021DD079
:1024B000C5F30A570246C5F31303C1F31300C1F372
:1024C0000A5640F4801543F48013A7EB0608101B4E
:1024D000D64608F2FD3873EB050002D308F1010877
:1024E00001E092185B41B8F1000F03DA00200146C9
:1024F000BDE8F08D00204FF48011064684460EE0C2
:10250000171B73EB050705D3121B63EB050306438B
:102510004CEA010C49084FEA300092185B4150EA3E
:102520000107EDD152EA030012D082EA040083EAE7
:102530000501084305D0101BAB4106D20122002340
:1025400006E000224FF0004302E06FF0010253105A
:102550001AEB06004CEB085110EB0A0041EB0B01A3
:10256000BDE8F04D00F0DFB9C10F80EAE07008442B
:10257000CA079623002100F0A8B99623002211462D
:1025800000F0A3B90EB5C10F80EAE0700844CA0795
:10259000002140F233438DE80E000A460B4600F05E
:1025A000D1F903B000BDC1F30A5210B5C1F3130154
:1025B00040F2FF3341F480119A4201DA002010BD4D
:1025C00040F233439A42A2F2334203DC524200F01B
:1025D00075F810BD904010BD00F0004230F0004092
:1025E0000AD0C10D01F56071C0F3160042EA015135
:1025F000C2084007114370470020014670470000A1
:1026000030B5041E71F1000404DB4FF00044404279
:1026100064EB0101141E73F1000405DB1C464FF04E
:102620000043524263EB04038B4208BF824230BD39
:1026300001F0004330B421F0004150EA010206D01D
:102640000A0DA2F56072C1F31301002A02DC30BC4E
:1026500000207047440F44EAC104C100E01830BCB8
:1026600000EBC25000F028B9002801DBC0F10040A7
:10267000002901DBC1F1004181427047002801DBE4
:10268000C0F10040002901DBC1F1004188427047E0
:1026900030B50B46014600202022012409E021FA32
:1026A00002F59D4205D303FA02F5491B04FA02F52F
:1026B0002844151EA2F10102F1DC30BD202A04DB02
:1026C000203A21FA02F00021704721FA02F3D040AB
:1026D000C2F12002914008431946704700487047F4
:1026E000FC5C010810B50446FFF7F8FF0068005DC8
:1026F00000F0010010BD3A2800D2303820F020024E
:10270000412A01D3A2F13700884201D34FF0FF30B4
:102710007047000002681144137801601846704742
:10272000D1600449516104491162002111611146CF
:1027300000F074BA15270008E5260008426842B187
:10274000016811F8013B23B1521EC0E9001218467E
:1027500070470121C160881E704742685AB1C36842
:10276000016843B983688B4205D0491E521CC0E9F9
:102770000012002070474FF0FF3070472DE9F05FE6
:1027800082460078002715468B460AF10104B946B7
:10279000302801D09DB113E014F8010B01277828EF
:1027A00003D0582801D045B10AE00DB1102D07D152
:1027B0000027102514F8010B02E0082500E00A2587
:1027C0000026B0460EE005FB080005FB06F10127D8
:1027D00001EB10461FFA80F8B6F5803F00D3B946EA
:1027E00014F8010B2946FFF786FF0028EBDABBF14E
:1027F000000F05D00FB1641E00E05446CBF8004036
:10280000B9F1000F06D007F05BFD02210160C81E80
:10281000BDE8F09F48EA0640FAE700000FB4002345
:1028200000B589B00CA900910B996FF00042CB6004
:102830001E4B06931E4B07930423CDE901321D4A1C
:10284000089202466B460020FFF784FB09B05DF852
:1028500014FB70B586B006464FF0FF300091CDE90D
:102860000101002015460C4604903246694604A832
:10287000FFF7D4FF02460498211825B108B1084695
:1028800000E020462860049800280DD0002A02DDD0
:102890000098884208D0081B0094CDE90104324614
:1028A000694604A8FFF7BAFF06B070BD3D270008CF
:1028B0005B270008E52600080029A8BF7047401CD8
:1028C000490008BF20F00100704710B4B0FA80FC46
:1028D00000FA0CF050EA010404BF10BC704749B183
:1028E000CCF1200421FA04F411FA0CF118BF0121F3
:1028F00021430843A3EB0C01CB1D4FEA00614FEAD3
:10290000102042BF002010BC704700EBC3501044A1
:102910000029A4BF10BC7047401C490008BF20F02C
:10292000010010BC704710B5141E73F1000408DAE2
:10293000401C41F1000192185B411A4301D120F083
:10294000010010BD2DE9F04D92469B4611B1B1FA40
:1029500081F202E0B0FA80F220329046FFF766F88A
:1029600004460F4640EA0A0041EA0B0153465A4624
:10297000084313D0114653EA010019D0C8F14002B0
:102980005046FFF79BFE05460E46504659464246C6
:10299000FFF74CF8084305D0012004E020463946F3
:1029A000BDE8F08D0020054346EAE0762C4337432E
:1029B0000A986305E40AA0EB08000022FD0A44EA35
:1029C00047540A3002D500200146E9E701051019F5
:1029D0006941DDE9084500196941BDE8F04DA2E70C
:1029E0002DE9FE4F804681EA0300C00F0C4600909F
:1029F00021F0004123F00045B8EB0200A94105D2C7
:102A00004046214690461C460B46024623F00040B5
:102A1000104347D0270DC7F30A00C3F30A510290B1
:102A2000401A019040286BDAC3F3130040F4801B76
:102A30000098924620B10023D2EB030A63EB0B0B04
:102A400001985946C0F140025046FEF7EFFF064696
:102A50000D4650465946019A00F0CEF810EB08009A
:102A60006141002487EA115284EAE7731A4340D097
:102A7000009A62B3019A012A4FEA075215DC001B43
:102A800061EB02014FF0004202EA0752CDE9004239
:102A9000001C41F5801132462B46FFF753FF03B06F
:102AA000BDE8F08F40462146F9E7001B61EB0201CB
:102AB000001C41F5801300185B412018A2F5001797
:102AC00047EB030140EAD570B6196D4111E06D087E
:102AD0004FEA360645EAC0754FEA0752001B61EB24
:102AE0000201001C41F5801149084FEA300000192D
:102AF000514132462B4603B0BDE8F04FFFF713BFFC
:102B00000098012240000023D0EB020263EBE07347
:102B1000009821464FEAE074B8EB000061EB040135
:102B2000E9E783F000435BE781F0004158E770B5C7
:102B300021F0004303430CD0C1F30A550024D5EB28
:102B4000040564EB0403D617AD1AB34102DB002081
:102B5000014670BD201841EB025170BD0EB540F228
:102B6000334202920022CDE900221346FFF7EAFE2B
:102B700003B000BDC1F30A52C1F3130140F2FF33A9
:102B800041F480119A4202DA00200146704740F277
:102B900033439A42A2F2334202DC5242FFF78EBD27
:102BA000FEF744BF30B5041E71F1000404DB4FF0A2
:102BB0000044404264EB0101141E73F1000405DB84
:102BC0001C464FF00043524263EB0403994208BF96
:102BD000904230BD064C074D06E0E06840F001032E
:102BE00094E8070098471034AC42F6D3FEF7A4FEF1
:102BF0008C5D0108AC5D0108202A06DBCB17203A6A
:102C000041FA02F043EAE07306E041FA02F3D040F1
:102C1000C2F1200291400843194670472DE9F34F55
:102C20008BB04FF0000801F10C000C464FF0010B87
:102C300046460DF1080A019062690121019890470A
:102C4000051E2DD0252D2CD0216A8847C0B1626980
:102C5000012101989047216A88470028F7D1411E39
:102C600062690198904700E0761CA1690B9888473B
:102C7000216A88470028F7D1E1690B988847DBE78C
:102C8000A1690B9888470746A84201D1761CD3E773
:102C9000E1690B9888477F1C02D1B8F1000F6FD013
:102CA00046E1002762693D463946019890472A2847
:102CB00004D162690121019890470125DFF88492CF
:102CC0006269012101989047A0F130010A290AD2D6
:102CD0004F45E5DC07EB870100EB4107303FDFD4D0
:102CE00045F01005ECE7E90601D46FF000476C28C9
:102CF0000AD04C2814D0682815D06A280DD0742822
:102D00001CD07A281AD01DE06269012101989047F1
:102D10006C2802D045F0040514E045F002050DE0F2
:102D200045F020050AE06269012101989047682872
:102D300002D045F0080505E045F40065626901210F
:102D400001989047C4E9015765283DD019DC5828FF
:102D50007AD00CDC452837D004DC252826D0412841
:102D600031D131E046282FD047282CD12CE05B28E8
:102D700077D0612828D063287CD0642823D15AE0FA
:102D8000D0E06F2848D008DC66281DD067281BD00B
:102D9000692821D06E2816D127E0702845D07328E5
:102DA00068D0752847D078280DD14DE0A1690B98DF
:102DB0008847054625283FF469AFE1690B988847A5
:102DC0006D1C3FF46AAFB3E023466A466FF0010022
:102DD0000B99FFF7BFF89EE045F040006060A80740
:102DE00023464FF0000236D43EE0E8077FF447AFB9
:102DF0002068011D21600068290501D506701BE7C8
:102E0000290701D5068017E7A90703D5F117C0E9FF
:102E1000006111E706600FE745F040006060A80719
:102E200023464FF0080216D41EE040F60E0125EAB4
:102E30000100606016E045F040006060A80723468E
:102E40004FF00A0207D40FE045F040006060A80789
:102E500008D5234610226FF001000B99FEF794FE6F
:102E600059E007E0234610226FF001000B99FEF7AE
:102E700036FF50E04FF000094F464B46632802D022
:102E80005B2806D040E0E80601D40120A0600127BD
:102E90003AE062690121019890475E2805D14FF020
:102EA00001096269494601989047216939B90021B1
:102EB0000A46534643F82120491C0829FADBB0B3DF
:102EC000216969B9C11700EBD16253110AEB830183
:102ED00022F01F02821A01200B68904003430B600E
:102EE00062690121019890475D28E8D1B9F1000F8E
:102EF00009D00020514651F82020D24341F820202B
:102F0000401C0828F7DB02AB224600976FF0010057
:102F10000B99AFF3008000280CDA401C08D1BBF1FC
:102F2000000F05D04FF0FF300DB0BDE8F08FFFE788
:102F30004046F9E7E90701D108F1010806444FF0DE
:102F4000000B79E6CCCCCC0C2DE9F04D00231A46D1
:102F50001B1A8A4103DB00200146BDE8F08DC1F356
:102F60000A52C1F3130141F480154FF0000BD10751
:102F700002D100186D41521E0027044640F2FF1195
:102F8000384601EB620A3E468046024600204FF476
:102F90008011FFF793FBC2197141BB1846EB01008A
:102FA000B4EB030C75EB000C04D3E41A65EB0005DD
:102FB00017460E46241908F101006D418046342859
:102FC000E3DDF91946EB0600091BA84103D24FF0D7
:102FD000FF32134601E0002213461BEB070046EBCD
:102FE0000A51BDE8F04DFFF79EBC70B58C1810F883
:102FF000015B15F0070301D110F8013B2A1106D13E
:1030000010F8012B03E010F8016B01F8016B5B1E57
:10301000F9D12B0705D40023521E0DD401F8013B32
:10302000FAE710F8013BCB1A921C03E013F8015B9E
:1030300001F8015B521EF9D5A142D8D3002070BD22
:1030400021B1826842F00102826003E0826822F0CE
:10305000010282607047000010B5044612488442A5
:1030600008D10121401503F0CFF90021601503F0CC
:10307000CBF917E00D48844208D10121001503F077
:10308000C3F90021201503F0BFF90BE00848844282
:1030900008D10121C80303F0B7F900214FF4004023
:1030A00003F0B2F910BD00000024014000280140E7
:1030B000003C0140014600208A6802F004020AB187
:1030C000012000E000207047014600208A6802F0DD
:1030D00008020AB1012000E00020704730B5024626
:1030E0000020002350680F4C20400D790C6844EA02
:1030F00005242043506090680B4C2040D1E90254D5
:103100002C434D7944EA450420439060D06A20F472
:1031100070000C7C641EE4B2234340EA0350D0628A
:1031200030BD0000FFFEF0FFFDF7F1FFF0B50446F3
:103130000D4600200021092D11DDE068A5F10A06E9
:1031400006EB4607072606FA07F18843A5F10A06AB
:1031500006EB460603FA06F10843E0600CE020693E
:1031600005EB4507072606FA07F1884305EB4506F8
:1031700003FA06F108432061072A0FDA606B561E36
:1031800006EB86071F2606FA07F18843561E06EB54
:10319000860605FA06F10843606322E00D2A0FDA7D
:1031A000206BD61F06EB86071F2606FA07F1884319
:1031B000D61F06EB860605FA06F10843206310E0E9
:1031C000E06AA2F10D0606EB86071F2606FA07F154
:1031D0008843A2F10D0606EB860605FA06F10843C0
:1031E000E062F0BD816841F008018160704781684C
:1031F00041F004018160704710B505F055FF10BD26
:1032000070B519A005F09EF904F0A6FF044606F07B
:103210001DFF04F031FF044606F0F2FE04F040FF0B
:10322000044604F02DFF0546214606F0B7FE04F0E3
:1032300051FF84B2204606F011FF04F077FF0446E8
:1032400006F02CFF0B4805F0D3FF0B4800F0ACFD57
:1032500005F0DCF90FF092FB0EF050FE06F0BEFF19
:1032600010F02EFE70BD00002424242423232323E9
:1032700000000000F551010841F9000810B506F002
:1032800091F911F09BFE0CF0D1FD11F08FFA11F0C5
:10329000EFFE10BD10B5012003F0C6F8002003F0CA
:1032A000C3F810BD08B50146002000900348009007
:1032B0000098084400900098008808BD006C004009
:1032C00008B500220092044A0092009A024400923B
:1032D000009A116008BD0000006C004008B508F0BD
:1032E000D1F820A0006800900121684604F0EAFAB5
:1032F0001D4908600846006830B3642009684860CA
:103300000A2019490968086018481749096888603F
:10331000174815490968C8601648134909680861C3
:10332000154811490968886114480F4909680862FD
:1033300013480D490968C86112480B49096848617A
:103340000948006804F028FC0F4A0021052003F01A
:10335000C7F90E49086001210348006804F09CFB8E
:1033600008BD00000B000000B006002087B4000874
:10337000D1B4000831B500080DB4000825B4000828
:10338000F1B5000889B40008C10B0108B40600209B
:1033900008B508F0A9FA20A000680090022168464C
:1033A00004F090FA1D4908600846006830B36420B4
:1033B0000968486096201949096808601848174943
:1033C00009688860174815490968C8601648134994
:1033D00009680861154811490968886114480F494E
:1033E0000968086213480D490968C86112480B4909
:1033F000096848610948006804F0CEFB0F4A0021C3
:10340000022003F06DF90E490860012103480068AD
:1034100004F042FB08BD000005060000A0050020E6
:10342000EBB8000835B90008ADB9000871B800085C
:1034300089B80008A5BA0008EDB8000845040108DD
:10344000A405002070B500254FF4803400E0641E10
:1034500024B1802003F0AAFA0028F8D014B903257B
:10346000284670BD40F2FF5003F036FA2846F8E7D0
:103470000246002106E01048806800F0800000B19C
:1034800009E0491CB1F5FA6F05D20C48406B00F019
:1034900045000028EFD000BF40F2FF50074B986373
:1034A000B1F5FA6F01D3032070470448406908233F
:1034B0001840C0B2F8E70000001001400080014051
:1034C00070B5002600251548446B02E01348446B94
:1034D0006D1CB5F5FA6F03D204F045000028F5D055
:1034E00004F0040028B10326042003F0F5F9304667
:1034F00070BD04F0010028B10126012003F0ECF9B1
:103500003046F5E740F2FF5003F0E6F9B5F5FA6F03
:1035100001D30320ECE73046EAE7000000800140D9
:1035200070B5002600241048456B02E00E48456B3C
:10353000641CB4F5FA6F03D205F045000028F5D0FD
:1035400005F0040028B10326042003F0C5F9304635
:1035500070BD40F2FF5003F0BFF9B4F5FA6F01D32C
:103560000320F5E73046F3E7008001402DE9F047FE
:10357000074688464FF0000900262848456B02E0C0
:103580002648456B761CB6F5FA6F03D205F0450068
:103590000028F5D005F0040038B14FF003090420ED
:1035A00003F09AF94846BDE8F08705F0010030B114
:1035B0004FF00109012003F08FF94846F3E703F0CB
:1035C000EFF9B84203D04FF010094846EBE740F25C
:1035D000FF5003F081F9B6F5FA6F01D30320E2E75B
:1035E000002003F0F7F9044604F4604020B9200CF1
:1035F000A8F800004846D6E704F4005008B11320AC
:10360000D1E704F4804008B11020CCE704F4004076
:1036100008B10F20C7E74846C5E700000080014019
:1036200070B500264FF480350F48446B02E06D1EE4
:103630000D48446B04F0450008B9002DF7D115B1D1
:1036400004F0040028B10326042003F045F93046B5
:1036500070BD04F0400028B10026402003F03CF982
:103660003046F5E73046F3E70080014000F0805136
:1036700011B10349086001E0024948607047000049
:10368000040402400000024021B1026842F001023D
:10369000026004E002684FF6FE731A400260704751
:1036A00001684FF6FE721140016000210160416027
:1036B0008160C1604B49884208D14A49083949684C
:1036C00041F00F01474A083A51608AE045491431F8
:1036D000884208D143490839496841F0F001414A1C
:1036E000083A51607DE03F492831884208D13D4980
:1036F0000839496841F470613A4A083A516070E00B
:1037000038493C31884208D136490839496841F482
:103710007041344A083A516063E03249503188427E
:1037200008D130490839496841F470212D4A083AD6
:10373000516056E02B496431884208D12949083943
:10374000496841F47001274A083A516049E0254927
:103750007831884208D123490839496841F07061BD
:10376000204A083A51603CE01F49884206D1011FB7
:10377000096841F00F01021F116032E01A4914314B
:10378000884208D11849091F096841F0F001164A1A
:10379000121F116025E014492831884208D11249CE
:1037A000091F096841F470610F4A121F116018E087
:1037B0000D493C31884208D10B49091F096841F481
:1037C0007041094A121F11600BE0074950318842CD
:1037D00007D10549091F096841F47021024A121FE7
:1037E0001160704708000240080402400146486822
:1037F00080B2704701460020002201F0805313B1CF
:10380000054B1A6801E0054B1A6802EA01030BB187
:10381000012000E000207047000402400000024048
:1038200010B50022026847F6F0739A430C6A8B6861
:1038300023430C6923434C6923438C692343CC699C
:1038400023434C6A23438C6A23431A430260CB68A8
:1038500043600B6883604B68C36010BD10B54FF4C4
:10386000007000F065F8A0B100200F4908700F4803
:10387000006820F400700D49086000210C4805F034
:103880003DFA01210A4805F026F94FF4007000F0D6
:1038900049F8802000F04CF820B110F071FA802037
:1038A00000F040F810BD0000980000200004014026
:1038B000000400401FB50121412002F095FD4FF4A6
:1038C0000070ADF80C0048208DF80F0003208DF833
:1038D0000E0003A9124800F00BFB0921042000F0A0
:1038E000E7FA4FF40070019000208DF808000C20DA
:1038F0008DF8090001208DF80A0001A800F024F8D5
:1039000017208DF8000000208DF8010002208DF8AE
:10391000020001208DF80300684602F0B5FB1FBDD0
:10392000001801400149086070470000140401407C
:1039300001460020034A12680A400AB1012000E053
:103940000020704714040140002123498279002A95
:103950003AD00A46126803689A430B461A600A1D59
:10396000126803689A430B1D1A60027911440A68B1
:1039700003681A430A60184A0832126803689A43B7
:10398000154B08331A601A1D126803689A43124BCC
:103990000C331A604279102A0ED11A1F126803687C
:1039A0001A430D4B08331A601A1D126803681A4334
:1039B000094B0C331A600DE00749427911440A683B
:1039C00003681A430A6005E0027911440A68036833
:1039D0009A430A6070470000000401400149C86032
:1039E000704700000020024030B5044604254FF423
:1039F000302000F095F80546042D17D10C480069D9
:103A000040F002000A49086108464461006940F03C
:103A1000400008614FF4302000F082F80546044869
:103A2000006941F6FD71084001490861284630BD32
:103A30000020024004200B49C96801F0010109B1CE
:103A400001200EE00749C96801F0040109B1022014
:103A500007E00449C96801F0100109B1032000E042
:103A6000042070470020024010B5024902A006F071
:103A7000EFFB10BD1B560108257320456E7472794B
:103A80002121210A000000000348006940F0800065
:103A900001490861704700000020024078B50646E1
:103AA0000C46042500200090E80200F039F8054695
:103AB000042D24D11348006940F001001149086128
:103AC0003480E80200F02CF80546042D10D1B01C1B
:103AD0000090200C00990880E80200F021F80546CB
:103AE0000848006941F6FE7108400649086106E091
:103AF0000448006941F6FE71084002490861284601
:103B000078BD000000200240024803494860034895
:103B1000486070472301674500200240AB89EFCD24
:103B200000B502460423FFF785FF034603E0FFF7D5
:103B300081FF0346521E012B01D1002AF7D102B9A1
:103B40000523184600BD000008B50BF0F3F820A0CF
:103B5000006800900221684603F0B4FE1D49086029
:103B60000846006830B36420096848600520194998
:103B70000968086018481749096888601748154996
:103B80000968C86016481349096808611548114951
:103B90000968886114480F490968086213480D498B
:103BA0000968C86112480B490968486109480068FA
:103BB00003F0F2FF0F4A0021042002F091FD0E49AC
:103BC000086001210348006803F066FF08BD00009B
:103BD00008070000E405002037ED000881ED00082B
:103BE000F9ED00087DEC0008ADEC000835EF0008A9
:103BF00039ED0008E5040108E80500202DE9FC4145
:103C000007460D4600260024002000900190082061
:103C10006049086010204860402088600020C8602B
:103C20004FF480600861084602F00EFF1020FFF795
:103C30001FFC044614B12046BDE8FC8156480088AC
:103C40000004544908603720486040208860002004
:103C5000C8604FF480600861084602F0F5FE372026
:103C6000FFF706FC04460CB12046E5E74FF0FF30B5
:103C70004A49086008204860302088600220C860F7
:103C80000020086101204861084602F037FE00204C
:103C90004049086033204860402088600020C860A8
:103CA0004FF480600861084602F0CEFE3320FFF733
:103CB000DFFB04460CB12046BEE712E04FF40010D3
:103CC00002F074FE38B102F0B9FE4DF82600761C01
:103CD000012E00D90CE03248806800F0800000B16D
:103CE00006E03048406B40F22A6108400028E5D0E9
:103CF00000BF082002F05AFE28B1082002F0ECFDB7
:103D00000424204698E7022002F050FE28B1022049
:103D100002F0E2FD022420468EE7202002F046FE5B
:103D200028B1202002F0D8FD0624204684E74FF475
:103D3000007002F03BFE30B14FF4007002F0CCFD99
:103D40000724204678E740F2FF5002F0C5FD0098B6
:103D50000006009901F47F4140EA0120009901F436
:103D60007F0140EA1120009940EA116068600198E3
:103D70000006019901F47F4140EA0120019901F414
:103D80007F0140EA1120019940EA11602860204635
:103D900052E700007C0C0020E0000020900C002086
:103DA0000010014000800140014908607047000098
:103DB0005000002038B500201349087013480078DF
:103DC000F8B104F01DFB0446114A214611A006F08B
:103DD0003FFA12A006F03CFA11A006F039FA0120D1
:103DE0001049087001F056F90F49086041F2883017
:103DF00003231322012100900CA00BF049FE0020A8
:103E000038BD4FF0FF30FBE7490000203D000020A7
:103E1000D354010825732025733A200000000000C8
:103E20000A0000004A0000204C00002043474E5387
:103E30005057523D3100000038B504F0E1FA044615
:103E4000104A214610A006F003FA11A006F000FA6D
:103E500010A006F0FDF900200F4908700F49087006
:103E60000F48007850B141F2883003231422012119
:103E700000900CA00BF00CFE002038BD4FF0FF307E
:103E8000FBE70000CA54010825732025733A20007F
:103E9000000000000A000000490000204A00002045
:103EA0003D00002043474E535057523D3000000024
:103EB00030B500228B071C0F0F2303FA04F20B4BC3
:103EC0008C1053F824309343084C8D1044F825305F
:103ED00023468C1053F824308C07240F00FA04F486
:103EE0002343024C8D1044F8253030BD08000140BA
:103EF0002DE9F04102460025002600200023002481
:103F0000002791F803C00CF00F0591F803C00CF0E6
:103F1000100CBCF1000F03D091F802C04CEA05056B
:103F200091F800C0BCF1000F31D0146800202BE0E4
:103F30004FF0010C0CFA00F3B1F800C00CEA0306D4
:103F40009E4220D183004FF00F0C0CFA03F7BC43C4
:103F500005FA03FC4CEA040491F803C0BCF1280FF5
:103F600006D14FF0010C0CFA00FCC2F814C00AE0B4
:103F700091F803C0BCF1480F05D14FF0010C0CFAC9
:103F800000FCC2F810C0401C0828D1D31460B1F85E
:103F900000C0BCF1FF0F34DD546800202EE000F1BA
:103FA000080C4FF0010808FA0CF3B1F800C00CEA55
:103FB00003069E4221D183004FF00F0C0CFA03F749
:103FC000BC4305FA03FC4CEA040491F803C0BCF1BD
:103FD000280F05D100F1080C08FA0CF8C2F814807B
:103FE00091F803C0BCF1480F07D100F1080C4FF065
:103FF000010808FA0CF8C2F81080401C0828CED33B
:104000005460BDE8F0810000F0B50A4600230024AA
:104010000021002500F00046B6F1004F02D11D4EF0
:10402000F16901E01B4E7168C0F3034583B200F4EF
:104030004016B6F5401F08D121F07061154E766824
:1040400026F07066134F7E6012E000F48016B6F51D
:10405000801F06D1032606FA05F4A14341F07061E2
:1040600006E0460D360103FA06F6B14341F07061F1
:1040700022B1460D360103FA06F6314300F0004640
:10408000B6F1004F02D1034EF16101E0014E7160C3
:10409000F0BD0000000001400246002093680B4084
:1040A0000BB1012000E000207047416170470161C1
:1040B00070470AB1016100E0416170471FB50020FF
:1040C0000A490880488088804FF4165002900020EA
:1040D000ADF80400ADF80000ADF802000390044B09
:1040E0008A1D694601F092F81FBD00002C070020D0
:1040F000A5FC00081FB54FF4165002900020ADF843
:104100000400ADF80000ADF80200034803906946D2
:10411000002001F021F81FBD55FC0008034800787D
:10412000042801D1012070470020FCE73500002061
:1041300001490860704700004400002003480078EF
:1041400008B9002070470148FCE70000EC06002099
:1041500010B50E480146086148610D480146886067
:10416000C860FFF7C7FF0BF0A5FD0021084600F06F
:104170004FFF0121002000F07AFF0021012000F014
:1041800047FF0021012000F072FF10BD040700204E
:104190001C07002010B506F0E5FD0748007838B18F
:1041A0000BF054FC10F06CFE0BF0F0FB10F086FCF2
:1041B0000BF0BCFC10BD00003D0000200148007861
:1041C000704700006001002010B50248FFF7B0FF03
:1041D00010BD0000FDF9000810B50748007801285F
:1041E00008D100F073F800200449087000F052FF75
:1041F0000349086010BD000060010020610100203B
:104200006401002010B50648007840B900F022F89B
:1042100001200449087000F03DFF0349086010BD0B
:1042200060010020610100206401002010B50BF046
:1042300085FD10BD10B500F049F801200349087054
:1042400000F028FF0249086010BD00006101002055
:104250006401002010B51348007880B104F0D0F854
:104260000446114A214611A005F0F2FF11A005F005
:10427000EFFF12A005F0ECFF6FF0010010BD04F09D
:10428000BFF80446084A214608A005F0E1FF0CA04B
:1042900005F0DEFF09A005F0DBFF01200BF06EFD4D
:1042A0000020EBE73E0000201C5501082573202567
:1042B000733A2000427573792E2E2E000A000000FA
:1042C0007374617274202E2E2E00000010B50C48FD
:1042D000007880B104F094F804460A4A21460AA006
:1042E00005F0B6FF0AA005F0B3FF0BA005F0B0FF84
:1042F0006FF0010010BD00200BF040FD0020F9E739
:104300003E0000201355010825732025733A200034
:10431000427573792E2E2E000A00000030B587B04A
:10432000044604F06DF805460F4A29460FA005F033
:104330008FFF21460FA005F08BFF0FA005F088FF2F
:1043400084B1207807F0E2F922780CA102A805F0E8
:104350008FFF42F2107001230E221946009002A82E
:104360000BF096FB07B030BDE954010825732025FA
:10437000733A2000257000000A00000043495043B2
:104380004C4F53453D25642C30000000F0B59BB0E8
:1043900004460D4616468CB904F032F80746104A1A
:1043A000394610A005F054FF10A005F051FF15A0EC
:1043B00005F04EFF4FF0FF301BB0F0BD00962278A5
:1043C0002B4611A102A805F053FF44F620600123FB
:1043D0000B221946009002A80BF05AFB0020EBE7D5
:1043E0000455010825732025733A20004552523A9E
:1043F00020736F636B6574206973206E756C6C211C
:10440000000000000A000000434950535441525438
:104410003D25642C22544350222C222573222C2526
:104420006400000070B500243DE0214850F82400ED
:10443000002836D11C2003F041FF1D4941F824001B
:10444000084650F8240050B3084650F82400047081
:10445000002051F824108870154951F82410886004
:10446000134951F824104861114951F82410C860CB
:104470000F4951F82410086103F0C2FF05460D4AA8
:1044800029460DA005F0E4FE21460DA005F0E0FE52
:104490000DA005F0DDFE064850F8240070BD002098
:1044A000FCE7601CC4B2042CBFDB0020F6E7000070
:1044B000C80B0020F654010825732025733A20000C
:1044C0006964203D202564000A00000070B50446A0
:1044D0008CB12578284607F019F9A06820B1A068AA
:1044E00005F0F2FE0020A060204605F0EDFE002061
:1044F000014941F8250070BDC80B00202DE9F05F8F
:1045000006468A46154600240027A04686B903F0D1
:1045100077FF8346334A594633A005F099FE34A00D
:1045200005F096FE37A005F093FE0020BDE8F09F51
:104530003548806818B9344801468860C8603248F8
:104540008768D7F8089006E008F1010000F0FF083E
:104550004F46D7F808902C488742F5D1B8F10A0F9A
:1045600010DD03F04DFF83461E4A59461EA005F09C
:104570006FFE414625A005F06BFE22A005F068FE07
:104580000020D3E7102003F099FE04463CB3691CD9
:1045900088B203F093FE6060606800B32A4651461B
:1045A0006068FDF752FA00206168485565803078F0
:1045B00020701548806818B9134801468860C860A3
:1045C0001148A060C06884600F48C068E0600E4871
:1045D000C46044F6206001F0F9FD2846A6E70020FB
:1045E000A4E70000DD54010825732025733A20005C
:1045F0004552523A20736F636B206973206E756C5D
:104600006C2100000A0000001C0700206C69737414
:104610002066756C6C2C2564000000002DE9F041CB
:1046200005460E46582003F049FE04463822254927
:1046300025A005F00DFE214625A005F009FE27A0C6
:1046400005F006FEA6722846FDF757FA401C87B211
:10465000384603F033FE20604FF4007003F02EFE66
:10466000E0631FA12846FDF720FA20B1E91D20686C
:10467000FDF765FA03E029462068FDF760FA04F1CA
:104680000C006061A061002060602062E06184F83D
:104690002C0084F8340020460DF04AFA68B150220C
:1046A000084909A005F0D4FD0FA005F0D1FD0BA02D
:1046B00005F0CEFD2046BDE8F081204600F016F85A
:1046C0000020F8E7AE59010825735B25645D3A00C8
:1046D000726571756573743A257000000A000000F8
:1046E000687474703A2F2F00000000002DE9F0412B
:1046F0000446206805F0E8FD64222B492BA005F054
:10470000A7FD2CA005F0A4FD2FA005F0A1FD2F48CA
:10471000006805F029FD00202C4908600026E06BA8
:1047200005F0D2FDE06910B1E06905F0CDFD6069EA
:1047300018B904F10C006061A0616569AF6806E01A
:1047400016B1304607F075FF2E463D46AF6804F1BE
:104750000C008542F4D116B1304607F06AFF802282
:10476000114912A005F074FD19A005F071FD16A005
:1047700005F06EFD606820B1606805F0A5FD0020C1
:1047800060608922084909A005F062FD15A005F0C6
:104790005FFD0DA005F05CFD204605F095FD0020B5
:1047A00015490860BDE8F081C059010825735B25F3
:1047B000645D3A006672656528726571756573742B
:1047C0002D3E75726C2900000A0000006404002070
:1047D00064657374726F79506172616D2870617273
:1047E000616D2900667265652872657175657374FF
:1047F0002D3E686F737429006004002010B52F48A7
:104800000468D4B194F82C00B8B105F01BFD216BFD
:10481000401A4EF6602188420FD940F2D912284939
:1048200028A005F015FD29A005F012FD2DA005F02A
:104830000FFD002120460BF011FB002C3DD094F819
:104840003400002839D005F0FDFCA16B401A42F27B
:104850001071884231D994F83500032813DB002009
:1048600084F8340040F2E312154916A005F0F0FC7C
:104870001DA005F0EDFC1BA005F0EAFC0021204680
:104880000BF0ECFA19E040F2E7120D490DA005F02B
:10489000DFFC1AA005F0DCFC12A005F0D9FC22898F
:1048A0001A486168006805F07AFC05F0CBFCA0634B
:1048B00094F83500401C84F8350010BD60040020D9
:1048C000025A010825735B25645D3A0068747470B0
:1048D00020726571756573742074696D656F757488
:1048E000000000000A0000007265636F6E6E656371
:1048F00074206661696C6564210000007265636FF5
:104900006E6E656374202E2E2E000000640400205D
:1049100010B504461948046040F2BB12184919A0AA
:1049200005F096FC19A0216805F092FC1CA005F08A
:104930008FFC1C48006818B905F0D0FB19490860C5
:1049400018480068C8B1184816490968086017482F
:104950001449096848601648124909688860228924
:1049600010486168006805F01AFC05F06BFCA06354
:10497000012084F8350084F8340010BD6004002064
:10498000F159010825735B25645D3A007374617207
:104990007420636F6E6E6563743A257300000000C7
:1049A0000A0000006404002061BB0008CD34010847
:1049B00091CA000800B587B00121102001F014FD54
:1049C0000121480201F010FD4FF4004001F0D0FC3D
:1049D0000820ADF8040000208DF8070001A91B484D
:1049E000FFF786FA1A48FEF737FB002002908DF891
:1049F0000C008DF80D004FF460200490002005900D
:104A000001208DF8180002A91148FEF767FB072363
:104A100001220D210E48FEF789FB01210C48FEF70B
:104A20000FFB0B48FEF7DEFB00BF0948FEF74CFB0F
:104A30000028FAD10648FEF7DAFB00BF0448FEF76B
:104A400039FB0028FAD107B000BD0000001001407A
:104A5000002401400348007808B10120704700207D
:104A6000FCE700006502002010B50AF0CBFD03F062
:104A700045FF0DF005FA00F0F8FA00F0EDF900F04E
:104A800009FC00F025FBFFF795FF0DF047FF10F044
:104A900099F80BF029FB10BD10B500F07BFC00F07D
:104AA000E5FA00F057FB00F0D8F900F033FD10F004
:104AB0004DF810BD012080F3138800BF00BF00BF78
:104AC00000BF00BF00BFBFF34F8F00BF00BF00BFDC
:104AD0000948006800F4E06008490843001D0649E1
:104AE000086000BF00BF00BFBFF34F8F00BF00BF13
:104AF00000BF00BF00BFFDE70CED00E00000FA05BD
:104B000010B501214E2000F0B2FA00F0E1FA00F0F9
:104B100011FD10BD10B503F073FC0446154A214683
:104B200015A005F095FB16A005F092FB16A005F068
:104B30008FFB00214E2000F09AFA00F0B7FA00F047
:104B4000D9FC1248006840F004001049086000BF1A
:104B500000BF30BF03F054FC0446064A214606A0BD
:104B600005F076FB0AA005F073FB07A005F070FBCB
:104B700010BD00000C56010825732025733A200053
:104B8000656E7472790000000A0000000070004039
:104B9000657869740000000010B500214E2000F017
:104BA00066FA0A48006840F00400084908600846B0
:104BB000006840F0020008600548006840F004000A
:104BC0000349086000BF00BF30BF10BD0070004047
:104BD00010ED00E04106090E014A11707047000017
:104BE000640200202DE9F04105460026284609F020
:104BF000F5FA074613223946154808F079FB08B143
:104C0000761E1AE00BF032FA0446002C02DA6FF03E
:104C1000010612E02246E3170D4808F0B6F90C48E9
:104C200008F0FAFE10B14FF0FF3606E00948405D8B
:104C3000401E40B20749485500BF054808F05AF9E0
:104C400010B10020044908703046BDE8F081000032
:104C5000400F0020EA010020E80C00202DE9F84F69
:104C600080460E4617464FF00009354810F80800F8
:104C700018B96FF00100BDE8F88F00F0B1FC90B1F9
:104C800003F0BEFB82462F4A51462FA005F0E0FA02
:104C900040F2B5112EA005F0DBFA2FA005F0D8FAEE
:104CA0004FF0FF30E7E7404609F098FA82461322BA
:104CB00051462A4808F01CFB10B14FF0FF3936E08E
:104CC0002648D0E904210020D2F10202884102D313
:104CD0006FF001092BE00BF0C9F90546002D02DA4F
:104CE0006FF0010923E02A46EB171C4808F04DF944
:104CF000002412E031196B460122184808F01EFC0E
:104D00000098012802D04FF0FF3910E0305D0D28E7
:104D100002D10020305502E0641CBC42EADB00BF37
:104D2000BC4202DB6FF0010901E0A14600BF0B4865
:104D300008F0E0F810B100200949087048469AE7E9
:104D4000EA010020E455010825732025733A20006C
:104D50004C3A2564000000000A000000400F0020CB
:104D6000E80C00202DE9F84304460D464FF00008FA
:104D7000274800573C2803DB6FF00100BDE8F883AB
:104D800000F02EFC10B14FF0FF30F7E7204609F09D
:104D900025FA0646132231461E4808F0A9FA10B13A
:104DA0004FF0FF382BE01B48D0E90463324608F08F
:104DB000ECF82846FCF7A1FE06466B46324629462B
:104DC000144808F01CFF2846FCF797FE009988421B
:104DD00002D04FF0FF3812E06B4602220EA10D48C0
:104DE00008F00DFF0098022802D04FF0FF3806E0CF
:104DF0000748005D401C40B20549085500BF054802
:104E000008F078F810B10020044908704046B5E772
:104E1000EA010020400F00200D0A0000E80C0020ED
:104E200010B500240DE020460AF0FEFA40B2064913
:104E3000085508460057002801DA00200855601C74
:104E4000C4B2022CEFD310BDEA01002010B5044615
:104E5000204609F08FFE10BD7047704770B50546BB
:104E60000E461446A2B23146284609F09AFE70BD9D
:104E70002DE9F74FADF5027D05461646002001905D
:104E800000240090A846DDF80C92C5F3080048B352
:104E9000B6F5007F26D94FEA552A4FEA4A2A0AF585
:104EA0000070401B87B2C7F500701FFA80FB4FF4FB
:104EB000007102A8FCF7E2FD5A4602A9504609F02B
:104EC00070FE02A901EB0B003A464946FCF7BDFD16
:104ED0004FF4007202A9504600F038F8F61BB944AE
:104EE000B84400BFC6F347200190C6F30800009005
:104EF00000240FE009EB44214FF4007202A8FCF7F4
:104F0000A4FD08EB44204FF4007202A909F057FEFB
:104F1000601CC4B201988442ECDB009890B1FF227F
:104F20004FF4007102A8FCF7A2FD09EB442102A88E
:104F3000009AFCF78AFD08EB44204FF4007202A9A6
:104F400009F03DFE0DF5057DBDE8F08F2DE9F04738
:104F5000ADF5007D05468946924600260027E80A01
:104F6000C002281A1FFA80F82848FFF76FFF0024B4
:104F700012E0E90AC90201EB44204FF400726946CD
:104F8000FFF76CFF214901EB44204FF400726946A2
:104F9000FFF76EFF601C84B2042CEAD3E80AC0025B
:104FA000FFF754FF00242AE0444503DB08EB0A0026
:104FB000A0420AD83A467B1C9FB26B46D118134ACE
:104FC000A0180122FFF74AFF08E0A4EB080019F837
:104FD00000203846791C8FB20DF80020B7F5007F0D
:104FE0000BD1E90AC90201EB46204FF40072694671
:104FF000FFF73EFF0027701CC6B2601C84B2B4F5F8
:10500000006FD1DB0DF5007DBDE8F08700180408C6
:10501000F8B504460D465F2C00DDF8BD20460AF0C9
:10502000BDFFADF8000003208DF802001DB910206F
:105030008DF8030002E048208DF8030020460AF0B6
:10504000B5FF06466946FEF753FF00BFE5E770B5BA
:10505000044620460AF0A2FF054620460AF0A6FFB5
:1050600006462946FFF718F870BD704770472DE9CE
:10507000F04105460C4628460AF090FF06462846B1
:105080000AF094FF074622463146FFF712F8BDE8C2
:10509000F0810000014800687047000060020020B5
:1050A00008B162B600E072B67047000010B5012189
:1050B000064803F00DFD00220121044803F015FE0F
:1050C0000021024803F007FD10BD0000002C014044
:1050D0001FB540F2E330ADF804004720ADF80800FA
:1050E0000020ADF80600ADF80A008DF80C0001A90B
:1050F000114803F005FE4FF4C06000F0FDFF1920D9
:105100008DF8000001208DF8030000208DF80100CB
:1051100002208DF80200684600F0B6FF0121064823
:1051200003F0D6FC01221146034803F0DEFD012105
:10513000014803F0D0FC1FBD002C014010B504480D
:105140000068401C02490860FEF756F810BD0000D8
:1051500060020020704700002DE9FF4104460D4623
:10516000684603F06EFF0CB9244E10E0012C01D10B
:10517000234E0CE0022C01D1224E08E0032C05D175
:105180002946204602F0E6FEBDE8FF81FCE71E4806
:1051900000EB041095E88E008EC00021304603F02D
:1051A0006AFE002240F22551304603F0B0FEA868A6
:1051B00000906888ADF804002888ADF80800002049
:1051C000ADF806000C20ADF80A00A888ADF80C0078
:1051D0006946304603F0C0FE40F22551304603F0E8
:1051E0003BFE012240F22551304603F090FE0121A2
:1051F000304603F040FE00BFC6E700000038014023
:105200000044004000480040901100202DE9FF417B
:1052100006460C4615461F468EBB1A4805601A48BE
:1052200007604FF480612846FCF728FC00211748EE
:1052300003F021FE002240F22551144803F067FEDE
:10524000A06800906088ADF804002088ADF80800E0
:105250000020ADF806000C20ADF80A00A088ADF8DB
:105260000C006946094803F077FE07F051FD4FF442
:105270008060074908800121044803F0FCFDBDE877
:10528000FF8100006C020020700200200038014005
:10529000740200201CB54FF4C06000F02DFF2520E3
:1052A0008DF8040000208DF8050001208DF806001F
:1052B0008DF8070001A800F0E7FE26208DF8040015
:1052C00000208DF8050001208DF806008DF80700FC
:1052D00001A800F0D9FE27208DF8040001208DF8E8
:1052E00006008DF8070001A800F0CEFE4FF4007014
:1052F000ADF8000018208DF8030003208DF802009F
:1053000069462148FEF7F4FD4FF48060ADF80000D7
:1053100004208DF8030069461B48FEF7E9FD0420D0
:10532000ADF8000018208DF8030003208DF802006E
:1053300069461548FEF7DCFD0820ADF800000420A2
:105340008DF8030069461048FEF7D2FD01210F4891
:10535000FEF75AFE4FF48070ADF8000018208DF86B
:10536000030003208DF8020069460948FEF7C0FDDE
:105370004FF40070ADF8000004208DF8030069467A
:105380000348FEF7B5FD1CBD0008014030001400C5
:105390000014014010B51648FEF728FA154909888F
:1053A00088420FD01248FEF721FA044612480068DE
:1053B00030B110490988091B88B20F49096888472C
:1053C0000C4804804FF40030FEF714FA01280ED187
:1053D0004004FEF74BF90848006820B105480088F2
:1053E0000549096888474FF480600249088010BD6C
:1053F0005800024074020020700200202DE9F041A4
:1054000004460F469046032C05D14146384602F02B
:1054100091FDBDE8F0810CB90C4E04E0012C01D1E6
:105420000B4E00E00B4E00250CE0795D304603F09A
:1054300004FE00BF4021304603F032FD0028F9D0C1
:10544000681C85B24545F0DB00BFE2E7003801404B
:10545000004400400048004010B50121034803F01B
:1054600037FB0021014803F036FB10BD001000405F
:105470003EB504460F4804600F4803F039FB4FF473
:105480007A70ADF800004720ADF804000020ADF8B8
:105490000200ADF806008DF808006946064803F0E2
:1054A0002FFC0121044803F013FB0121024803F003
:1054B00012FB3EBDB00200200010004010B50121DB
:1054C0000A4803F009FC70B10121084803F000FB11
:1054D00007480068401E0649086008460068002822
:1054E00001DC012010BD0020FCE70000001000409E
:1054F000B002002010B50121880703F0E9FA00226C
:105500000121880703F0F1FB00214FF0804003F0F8
:10551000E2FA10BD10B500214FF0804003F0DBFA35
:105520000020034908700121880703F0D4FA10BD58
:10553000AC0200201FB544F61F60ADF8040041F630
:105540001F40ADF808000020ADF80600ADF80A00D5
:105550008DF80C0001A94FF0804003F0D1FB4FF40F
:10556000C06000F0C9FD1C208DF8000001208DF8FE
:10557000030000208DF8010003208DF8020068462A
:1055800000F082FD0121880703F0A2FA01221146F2
:10559000900703F0AAFB0121880703F09CFA1FBDC6
:1055A00000240FE002F02CFF0546084A294608A017
:1055B00004F04EFE08A004F04BFE08A004F048FEE4
:1055C000601CC4B20A2CEDDBFFF774FAFA5501082F
:1055D00025732025733A2000000000000A00000017
:1055E00010B518480078002824D100BF164800786C
:1055F00010B116A004F02CFE00BF012217A1114823
:1056000007F048FE044600BF0F48007818B1214655
:1056100013A004F01DFE00BF44B10020154908701E
:1056200001210B2003F048FD012010BD00210B20BB
:1056300003F042FD0F48007808B90120F5E700208B
:10564000F3E70000E80C0020E801002073746172A9
:105650007420665F6D6F756E740A0000313A000049
:10566000665F6D6F756E7420726573203D202564D2
:105670000A000000E901002010B5FFF70BFD014909
:10568000086010BD2402002070B5034600240020ED
:1056900010E00E5C451C4D5D46EA0526851C4D5DFF
:1056A00046EA0546C51C4D5D46EA056543F82450AB
:1056B000641C001D9042ECD370BD70B503461446C7
:1056C0000022002015E011F822501D5431F822501C
:1056D000C5F30726451C5E5551F82250C5F3074611
:1056E000851C5E5551F822502D0EC61C9D55521C2E
:1056F000001DA042E7D370BD2DE9FC4104460E46D3
:10570000002500272088C0F3C505382D02D2C5F139
:10571000380001E0C5F178000746082221466846B6
:10572000FFF7CBFF3A460849204600F00BFC082261
:105730006946204600F006FC102204F108013046BC
:10574000FFF7BBFFBDE8FC81680400200021016079
:10575000416005498160054AC260CA430261034A4B
:10576000D2434261704700000123456789ABCDEF0A
:105770002DE9F043C1B080468946D8F80040D8F8FA
:105780000450D8F80860D8F80C704022494601A8A7
:10579000FFF77AFF05EA060027EA050108430199A9
:1057A0000844FE4908440444E00140EA54642C449F
:1057B00004EA050026EA0401084302990844F8496E
:1057C00008440744380340EA1757274407EA04000F
:1057D00025EA0701084303990844F24908440644AE
:1057E000700440EAD6363E4406EA070024EA060181
:1057F000084304990844EC4908440544A80540EAD4
:105800009525354405EA060027EA05010843059970
:105810000844E64908440444E00140EA54642C4446
:1058200004EA050026EA0401084306990844E04911
:1058300008440744380340EA1757274407EA04009E
:1058400025EA0701084307990844DA490844064451
:10585000700440EAD6363E4406EA070024EA060110
:10586000084308990844D44908440544A80540EA77
:105870009525354405EA060027EA050108430999FC
:105880000844CE4908440444E00140EA54642C44EE
:1058900004EA050026EA040108430A990844C849B5
:1058A00008440744380340EA1757274407EA04002E
:1058B00025EA070108430B990844A0F524404F3816
:1058C0000644700440EAD6363E4406EA070024EA5D
:1058D000060108430C990844BA4908440544A80540
:1058E00040EA9525354405EA060027EA0501084304
:1058F0000D990844B44908440444E00140EA546462
:105900002C4404EA050026EA040108430E990844E1
:10591000AE4908440744380340EA1757274407EACA
:10592000040025EA070108430F990844A8490844E0
:105930000644700440EAD6363E4406EA070024EAEC
:105940000601084310990844A24908440544A805E3
:1059500040EA9525354405EA070026EA0701084391
:10596000029908449C4908440444600140EAD46414
:105970002C4404EA060025EA060108430799084476
:10598000964908440744780240EAD757274407EA73
:10599000050024EA050108430C990844904908448D
:1059A0000644B00340EA96463E4406EA040027EA6D
:1059B00004010843019908448A490844054428051C
:1059C00040EA1535354405EA070026EA0701084391
:1059D00006990844844908440444600140EAD464B8
:1059E0002C4404EA060025EA060108430B99084402
:1059F0007E4908440744780240EAD757274407EA1B
:105A0000050024EA05010843109908447849084430
:105A10000644B00340EA96463E4406EA040027EAFC
:105A200004010843059908447249084405442805BF
:105A300040EA1535354405EA070026EA0701084320
:105A40000A9908446C4908440444600140EAD4645B
:105A50002C4404EA060025EA060108430F9908448D
:105A6000664908440744780240EAD757274407EAC2
:105A7000050024EA050108430499084460490844E4
:105A80000644B00340EA96463E4406EA040027EA8C
:105A900004010843099908445A4908440544280563
:105AA00040EA1535354405EA070026EA07010843B0
:105AB0000E990844544908440444600140EAD464FF
:105AC0002C4404EA060025EA060108430399084429
:105AD0004E4908440744780240EAD757274407EA6A
:105AE000050024EA05010843089908444849084488
:105AF0000644B00340EA96463E4406EA040027EA1C
:105B0000040108430D990844424908440544280506
:105B100040EA1535354485EA060078400699084480
:105B20003D4908440444200140EA14742C4484EAAA
:105B30000500704009990844384908440744F802B0
:105B400040EA5757274487EA040068400C99084404
:105B5000334908440644300440EA16463E4486EA87
:105B6000070060400F9908442E4908440544E805A1
:105B700040EA5525354485EA0600784002990844F4
:105B8000294908440444200140EA14742C4484EA5E
:105B90000500704005990844244949E078A46AD773
:105BA00056B7C7E8DB702024EECEBDC1AF0F7CF541
:105BB0002AC68747134630A8019546FDD8988069C4
:105BC000AFF7448BBED75C892211906B937198FD1F
:105BD0008E4379A62108B44962251EF640B340C021
:105BE000515A5E26AAC7B6E95D102FD65314440257
:105BF00081E6A1D8C8FBD3E7E6CDE121D60737C3BC
:105C0000870DD5F4ED145A4505E9E3A9F8A3EFFC97
:105C1000D9026F678A4C2A8D4239FAFF81F6718763
:105C200022619D6D0C38E5FD44EABEA4A9CFDE4B90
:105C300008440744F80240EA5757274487EA04001B
:105C4000684008990844A54908440644300440EADD
:105C500016463E4486EA070060400B990844A04976
:105C600008440544E80540EA5525354485EA060020
:105C700078400E9908449B4908440444200140EAB6
:105C800014742C4484EA0500704001990844964934
:105C900008440744F80240EA5757274487EA0400BB
:105CA000684004990844914908440644300440EA95
:105CB00016463E4486EA07006040079908448C492E
:105CC00008440544E80540EA5525354485EA0600C0
:105CD00078400A990844874908440444200140EA6E
:105CE00014742C4484EA050070400D9908448249DC
:105CF00008440744F80240EA5757274487EA04005B
:105D00006840109908447D4908440644300440EA3C
:105D100016463E4486EA07006040039908447849E5
:105D200008440544E80540EA5525354465EA07007E
:105D3000704001990844734908440444A00140EAB2
:105D400094642C4464EA06006840089908446E494B
:105D500008440744B80240EA9757274467EA050019
:105D600060400F990844694908440644F00340EA3A
:105D700056463E4466EA0400784006990844644961
:105D800008440544680540EAD525354465EA07001E
:105D900070400D9908445F4908440444A00140EA5A
:105DA00094642C4464EA06006840049908445A4903
:105DB00008440744B80240EA9757274467EA0500B9
:105DC00060400B990844554908440644F00340EAF2
:105DD00056463E4466EA0400784002990844504919
:105DE00008440544680540EAD525354465EA0700BE
:105DF0007040099908444B4908440444A00140EA12
:105E000094642C4464EA06006840109908444649AA
:105E100008440744B80240EA9757274467EA050058
:105E2000604007990844414908440644F00340EAA9
:105E300056463E4466EA040078400E9908443C49C0
:105E400008440544680540EAD525354465EA07005D
:105E5000704005990844374908440444A00140EAC9
:105E600094642C4464EA060068400C990844324962
:105E700008440744B80240EA9757274467EA0500F8
:105E80006040039908442D4908440644F00340EA61
:105E900056463E4466EA040078400A990844284978
:105EA00008440544680540EAD5253544D8F8000083
:105EB0002044C8F80000D8F804002844C8F80400BA
:105EC000D8F808003044C8F80800D8F80C00384466
:105ED000C8F80C0041B0BDE8F0830000604BBBF691
:105EE00070BCBFBEC67E9B28FA27A1EA8530EFD4DE
:105EF000051D880439D0D4D9E599DBE6F87CA21FCA
:105F00006556ACC4442229F497FF2A43A72394ABD7
:105F100039A093FCC3595B6592CC0C8F7DF4EFFFE5
:105F2000D15D84854F7EA86FE0E62CFE144301A36B
:105F3000A111084E827E53F735F23ABDBBD2D72A63
:105F400091D386EB2DE9F04704460F46154600260F
:105F5000B046B1462088C0F3C508C8F140092068A2
:105F600000EBC50020602068B0EBC50F02D260686E
:105F7000401C6060606800EB557060604D451CD34C
:105F800004F1180101EB08004A463946FBF75DFDB4
:105F900004F1180104F10800FFF7EAFB4E4605E0A2
:105FA000B91904F10800FFF7E3FB403606F14000A1
:105FB000A842F5D94FF0000800E00026AA1BB91945
:105FC00004F1180303EB0800FBF73FFDBDE8F08781
:105FD0001CB50AF03FFF20A003C8CDE9000106214F
:105FE000684601F06FFC1E4908600846006830B33F
:105FF0006420096848600520194909680860194843
:10600000174909688860184815490968C860174821
:1060100013490968086116481149096888611548DB
:106020000F490968086214480D490968C861134896
:106030000B49096848610A48006801F0ADFD104A43
:106040000021012000F04CFB0E49086001210448AA
:10605000006801F021FD1CBD00010203040A0000DC
:1060600028060020570E0108A10E0108710F010833
:10607000D10C0108550D010865110108590E0108E0
:10608000450601082C06002070B5002100230F22D0
:10609000C47804B3154C246804F4E064C4F5E064E7
:1060A000210AC1F10403CA40447804FA03F1847858
:1060B0001440214309010E4C0678A155047804F0E0
:1060C0001F050124AC4005786D11AD0005F1E025F8
:1060D000C5F8004109E0047804F01F050124AC4034
:1060E000044D0678761145F8264070BD0CED00E0B1
:1060F00000E400E080E100E002490143024A11604F
:10610000704700000000FA050CED00E070B5044691
:1061100002F076F905460B4A29460BA004F098F8E0
:1061200021460BA004F094F80CA004F091F80C4860
:10613000007828B101200B490870204600F046F88D
:1061400070BD00004D55010825732025733A2000CD
:1061500064656C6179203D20256400000A00000020
:10616000250100202601002070B5044694B1207856
:1061700080B102F045F90546074A294607A004F018
:1061800067F8214607A004F063F80CA004F060F85B
:106190000220607070BD00003B550108257320256A
:1061A000733A200064657669636520257020736CFE
:1061B00065657020646F6E65000000000A000000D5
:1061C00000200149087070472601002010B50446E0
:1061D000FEF760FF204405490968884204D9FEF7AC
:1061E00059FF20440149086010BD0000280100202B
:1061F00010B500200349087030210348FBF73EFC2E
:1062000010BD000024010020B40C002070B512481D
:10621000007800B307F05AFE0DF01AFCD8B102F076
:10622000EFF804460D4A21460DA004F011F80EA027
:1062300004F00EF80FA004F00BF80DF005FC054675
:1062400001F048FF2844441E20460DF02DFB0DF0C0
:1062500075FB0EF037FF70BD250100209755010832
:1062600025732025733A2000212121616C61726D14
:10627000206F6E000A00000070B504460D4675B12F
:1062800027480078002849D1254894E80E000EC020
:1062900001202349087000204870084670BD21483D
:1062A000007804283ADA1F48007800EB40001E49C5
:1062B00001EB800094E80E000EC001201949097816
:1062C00001EB4101184A02F8210000201549097824
:1062D00001EB410102EB8101487002F091F80646A2
:1062E000124A314612A003F0B3FF0E48007800EBCB
:1062F00040000D4A02EB80010FA003F0A9FF0FA0A0
:1063000003F0A6FF074801780078401C054A10708A
:1063100001EB4100044901EB8000BFE70020BDE72D
:10632000A80C002024010020B40C002062550108B4
:1063300025732025733A2000257000000A00000014
:1063400010B501200349087002F0DCF80EF0BAFE27
:1063500010BD000025010020002001490870704791
:1063600025010020014908627047000000000E422C
:1063700001460020034A506820F440400843506022
:10638000704700000010024029B1064A52690243DA
:10639000044B5A6104E0034A52698243014B5A613B
:1063A000704700000010024029B1064AD26902433A
:1063B000044BDA6104E0034AD2698243014BDA619B
:1063C000704700000010024029B1064A12690243DA
:1063D000044B1A6104E0034A12698243014B1A61BB
:1063E000704700000010024029B1064A926902433A
:1063F000044B9A6104E0034A92698243014B9A611B
:10640000704700000010024029B1064AD2680243DA
:10641000044BDA6004E0034AD2688243014BDA603D
:1064200070470000001002400149086070470000FA
:10643000400442420348406A40F08070014948628B
:10644000704700000010024030B5002100220024F7
:1064500000232D4D6D6805F00C0121B1042905D0F4
:10646000082923D105E0294D056022E0274D05606C
:106470001FE0254D6D6805F47012234D6D6805F41D
:106480008034022505EB92421CB9214D554305602D
:106490000BE01D4D6D6805F400351DB11C4D5543D5
:1064A000056002E0194D5543056002E0174D056097
:1064B00000BF00BF144D6D6805F0F0010909154DCE
:1064C0006B5C0568DD4045600F4D6D6805F4E0616B
:1064D000090A104D6B5C4568DD4085600A4D6D68AA
:1064E00005F46051C90A0B4D6B5C4568DD40C56021
:1064F000054D6D6805F44041890B074D6B5CC5681F
:10650000B5FBF3F5056130BD0010024000127A00C2
:1065100000093D00340300204403002010B501466B
:106520000022002300204A11012A02D1094C2368CD
:1065300006E0022A02D1074C236A01E0054C636A97
:1065400001F01F02012494401C400CB1012000E026
:10655000002010BD0010024000210B4A11700A4AB1
:10656000203A82F82010012802D0042808D103E044
:106570000121054A117004E00521034A117000E071
:1065800000BF00BF704700002010024001490860B2
:10659000704700003C0442420249096A0143014A33
:1065A0001162704700100240024909888143014A84
:1065B00011807047042800400348008840F0100014
:1065C0000149088070470000042800400348008803
:1065D0004FF6EF71084001490880704704280040D9
:1065E000002103480188001F008841EA00407047ED
:1065F0001C28004001460020064A12880A40D0B2FA
:10660000044A121F12880A4012B108B1012000E0AA
:10661000002070470428004010B50120FFF7EAFF72
:1066200010B10120FFF7C0FF0220FFF7E3FF38B1F0
:106630000220FFF7B9FF012001F064FF0DF096FB87
:106640000520FFF7B1FF00F02FF810BD08B50320BB
:106650008DF8000000208DF801008DF80200012067
:106660008DF803006846FFF70FFD08BD00B5024630
:10667000FFF7A2FF100C03490880091D0A80FFF7ED
:10668000A5FF00BD1828004000B50246FFF794FFA3
:10669000C2F3034003490880091D0A80FFF796FFF3
:1066A00000BD00000828004000BF0348008800F03B
:1066B00020000028F9D070470428004007480088CF
:1066C0004FF6F77108400549088000BF034800886D
:1066D00000F008000028F9D07047000004280040AE
:1066E00030B503460C460A4800780A280EDA0948F5
:1066F000074D2D7800EBC5010B704C704A600448C3
:106700000078401C024D2870084630BD0020FCE790
:10671000640500202C15002010B505F021FD05F0C2
:106720000BFA10BD2DE9F04391B005468946164697
:106730001F460024002D3AD02A782046611CCCB296
:1067400001A90A542046611CCCB201A901F80090AD
:1067500032122046611CCCB201A90A542046611CA9
:10676000CCB201A90E543A122046611CCCB201A948
:106770000A542046611CCCB201A90F54214601A83D
:1067800005F068FB1FFA80F82046611CCCB201A915
:1067900001F800804FEA28222046611CCCB201A9F2
:1067A0000A54214601A809F0F5FC0248056011B021
:1067B000BDE8F08360050020704700007CB5054609
:1067C000002400200090019000F004F900F0007017
:1067D00010B10E2420467CBD3D49098888B2694627
:1067E000FDF70CFA04460CB12046F4E7012D36D132
:1067F000019800F4802000282ED03548008800043D
:106800003449086037204860402088600020C86014
:10681000A8020861084600F017F93720FCF728FEA7
:1068200004460CB12046D6E702202A49086006201B
:106830004860402088600020C8604FF48060086194
:10684000084600F001F90620FCF712FE04460CB1E0
:106850002046C0E72046BEE725242046BBE7019836
:1068600000F4803078B31A480088000419490860A1
:1068700037204860402088600020C8604FF4806066
:106880000861084600F0E0F83720FCF7F1FD044607
:106890000CB120469FE700200E49086006204860A2
:1068A000402088600020C8604FF48060086108467E
:1068B00000F0CAF80620FCF7DBFD04460CB12046C8
:1068C00089E7204687E7FFE72524204683E7000085
:1068D000E00000207C0C0020014988637047000024
:1068E000008001400149086070470000A00030426C
:1068F00001490860704700008C05304200210A4BB6
:1069000002685A6242689A621A46D16A21F0F70117
:10691000D0E902231A4303691A4343691A43114316
:10692000014AD16270470000008001400020064902
:10693000086048608860C86048628862C86203482E
:1069400088630020C863704700800140FF07C000D3
:1069500008B501213020FFF747FD4FF4F850ADF89E
:10696000000003208DF8020018208DF8030069460E
:106970000948FDF7BDFA0420ADF800006946074854
:10698000FDF7B6FA01218802FFF7FEFC0121022083
:10699000FFF7FAFC08BD00000010014000140140A0
:1069A00001480069C0B270470080014001460020E4
:1069B000034A526B0A400AB1012000E000207047F0
:1069C000008001400248006800F0030070470000AA
:1069D0000080014008B501460020009002480844AC
:1069E00000900098006808BD1480014029B1064A53
:1069F000D26B0243044BDA6304E0034AD26B824356
:106A0000014BDA63704700000080014000210A4A10
:106A1000516847F6FF629143027D83681A434368D9
:106A20001A43C3681A4303681A4303691A4311439C
:106A3000014A516070470000008001400148006831
:106A400070470000808001400021094B02689A6075
:106A50001A46D1686FF30A01D0E901231A43C368CB
:106A60001A4303691A431143014AD1607047000079
:106A7000008001400549096821F00301034A1160C3
:106A80001146096801431160704700000080014011
:106A900010B50548806800F0800008B1002010BDE6
:106AA0000248FCF7A7FEFAE70010014000200010A2
:106AB00030B58BB005460C461348FCF7D7FD0021D6
:106AC0001248FCF7E1FD1248009001950020029069
:106AD000A00803900020049080200590800006907C
:106AE00080000790002008904FF40050099000208B
:106AF0000A9069460548FCF793FE01210348FCF71C
:106B0000C3FD0BB030BD000000F000104404024093
:106B10008080014030B58BB005460C461348FCF729
:106B2000A5FD00211248FCF7AFFD12480090019529
:106B300010200290A008039000200490802005906F
:106B40008000069080000790002008904FF40050CD
:106B5000099000200A9069460548FCF761FE012172
:106B60000348FCF791FD0BB030BD000000F00010B1
:106B7000440402408080014070B50446002521484D
:106B80000068032802D12725284670BD1D480068EB
:106B900038B11C480068012803D01A480068022850
:106BA0002ED1B4F5805F02D127252846EDE7B4F554
:106BB000006F14D10120FFF701FE054605BB01203F
:106BC0001149087500200860486088604FF4006033
:106BD000C860002008610846FFF718FF10E0002099
:106BE000FFF7ECFD05465DB9012007490875002057
:106BF000086048608860C86008610846FFF706FFC3
:106C00002846C2E7DC000020640C002030B50146B5
:106C100000200022AC4B1B7881F84E30AB4B1B8818
:106C2000A1F84C30AA4B1B681A0E93090B70C2F3E3
:106C300083034B7002F003038B70A54B1B68C3F3F7
:106C40000742CA70A24B1B88C3F307220A71A04BEC
:106C50001A784A715B681A0E1301CB809C4B5B68F3
:106C6000C3F30742CB8843EA1213CB8002F00F0331
:106C70000B72974B9B88C3F30722D3094B72C2F365
:106C800080138B72C2F34013CB72C2F300130B73E9
:106C900000234B738C4B1B681BB18B4B1B68012B68
:106CA0003CD193071B0D0B61894B1A790B6943EAA1
:106CB00082030B61864B9B681A0E0B6943EA9213A1
:106CC0000B61C2F3C2030B7502F007034B75804BD7
:106CD0009B68C3F3074253098B75C2F38203CB75DC
:106CE00093075B0F0B767A4B1B89C3F307220B7E4E
:106CF00043EAD2130B760B695B1C4B640C7E4B6C26
:106D0000A41C0125A5406B434B640C7A0123A340CE
:106D10008B64D1E9113463434B6421E06A4B1B68F7
:106D2000022B1DD16A4B1A7993069B0A0B61684BA3
:106D30009B681A0E0B6943EA02230B61644B9B6844
:106D4000C3F307420B6913430B61614B1B89C3F308
:106D500007220B695B1CDB044B644FF400738B64EC
:106D6000C2F3801301F8193F93065B0E4B70584B2A
:106D70001A7A4B7843EAD2134B7002F07F038B7080
:106D8000534BDB681A0ED309CB70C2F341130B715E
:106D9000C2F382034B7193071B0F8B714C4BDB6863
:106DA000C3F307428B7943EA92138B71C2F340130A
:106DB000CB7100230B7202F001034B72444B9B8991
:106DC000C3F30722D3098B72C2F38013CB72C2F3D1
:106DD00040130B73C2F300134B73C2F381038B7325
:106DE00002F00303CB733A4B1A7B53080B74012355
:106DF0004B74384B1B681A0ECA741939354B1B6813
:106E0000C3F307421402CC85324B1B88C3F307221D
:106E1000CB8D1343CB852F4B1A7814060C635B681C
:106E20001A0E0B6B43EA02440C632A4B5B68C3F3F4
:106E300007420B6B43EA02240C63264B9B88C3F387
:106E400007220B6B13430B63224B1A7934235A54DA
:106E5000204B9B681A0E35235A541E4B9B68C3F374
:106E6000074214068C631B4B1B89C3F307228B6BF1
:106E700043EA02448C63174B1A7A8B6B43EA022471
:106E80008C63144BDB681A0E8B6B13438B63114BB3
:106E9000DB68C3F307423C235B5C43EA12143C23E8
:106EA0005C5413071C0DCC870A4B9B89C3F3072244
:106EB000CB8F1343CB87074B1A7B540840235C547A
:106EC000012441235C5430BDDC000020E0000020A0
:106ED000E40B0020F40B002008B500200090684669
:106EE00000F0BAFA08B1FF2008BD0098C0F34320B3
:106EF000FAE710B50424FFF7EFFF0446042C01D194
:106F0000002010BDFF2C01D10220FAE70120F8E794
:106F100010B50024FFF71CFDFFF708FD00F0CEF8C8
:106F200004460CB1204610BD00F02AF804460CB10E
:106F30002046F8E7012010490875002008604860E5
:106F40008860C86008610846FFF760FD1CB90B48FF
:106F5000FFF75CFE044634B90849B1F84C10080448
:106F600000F060FA044624B94FF40060FFF704FE15
:106F700004462046D7E70000640C0020140C0020D3
:106F800038B5002401200090FFF71CFD10B925241E
:106F9000204638BD44480068042828D000204349D2
:106FA000086002204860C02088600020C8604FF45C
:106FB000806008610846FFF747FDFCF781FA044648
:106FC0000CB12046E5E70020FFF704FD38490860D2
:106FD0000420FFF7FFFC364948600820FFF7FAFC61
:106FE000334988600C20FFF7F5FC3149C8602E4812
:106FF000006858B12C480068012807D02A4800686A
:10700000062803D028480068022816D10020274906
:10701000086003204860402088600020C8604FF46A
:10702000806008610846FFF70FFD69460320FCF702
:107030009DFA04460CB12046ABE71B4800680428C3
:107040002ED0BDF800001B490860BDF80000000408
:107050001649086009204860C02088600020C86088
:107060004FF4806008610846FFF7EEFCFCF728FA51
:1070700004460CB120468CE70020FFF7ABFC0E491C
:1070800008600420FFF7A6FC0B4948600820FFF7C2
:10709000A1FC094988600C20FFF79CFC0649C860E8
:1070A0000024204675E70000DC0000207C0C002056
:1070B000F40B0020E0000020E40B00202DE9F0415B
:1070C0000024002600250027A046B2205849087554
:1070D0000020086048608860C86008610846FFF7C3
:1070E00095FC0320FFF7C6FC0120FFF7FBFB002007
:1070F0005049086048608860C8604FF4806008614B
:107100000846FFF7A1FCFCF79DF9044614B12046A0
:10711000BDE8F0814FF4D57046490860082048600A
:10712000402088600020C8604FF4806008610846F5
:10713000FFF78AFCFCF774FA04462CB901203E499B
:1071400008604FF0804812E000203A49086037207C
:107150004860402088600020C8604FF4806008616B
:107160000846FFF771FC3720FCF782F9044600203F
:107170003049086037204860402088600020C8609F
:107180004FF4806008610846FFF75EFC3720FCF78B
:107190006FF90446002C49D136E0002025490860EB
:1071A00037204860402088600020C8604FF480602D
:1071B00008610846FFF748FC3720FCF759F90446F8
:1071C0000CB12046A4E71D4848EA000019490860B0
:1071D00029204860402088600020C8604FF480600B
:1071E00008610846FFF730FCFCF79AF904460CB139
:1071F00020468DE70020FFF7EDFB0646012080EAE0
:10720000D67080F001076D1C17B9B5F5FF7FC4D9A2
:107210004FF6FF70854202D31B24204678E706F024
:107220008040061E02D002200349086020466FE716
:10723000640C00207C0C0020DC000020000010808A
:107240002DE9F041804614461D46069E0027002089
:107250002F4908702F4908602F4908602F49C862DC
:107260002F480068022808D10602020200232046A7
:107270002946FAF779FB04460D462A480660102095
:1072800028494860402088600020C8604FF4806032
:1072900008610846FFF7D8FB1020FCF7E9F807461D
:1072A00017B13846BDE8F0814FF0FF301E49086045
:1072B00008464660902088600220C860002008616F
:1072C000012048610846FFF719FB164804601120A9
:1072D00014494860402088600020C8604FF48060F6
